{
    "_format": "hh-sol-artifact-1",
    "contractName": "BuyMeACoffe",
    "sourceName": "contracts/Coffe.sol",
    "abi": [
        {
            "inputs": [],
            "stateMutability": "nonpayable",
            "type": "constructor"
        },
        {
            "inputs": [
                {
                    "internalType": "string",
                    "name": "_name",
                    "type": "string"
                },
                {
                    "internalType": "string",
                    "name": "_message",
                    "type": "string"
                }
            ],
            "name": "buyCoffee",
            "outputs": [],
            "stateMutability": "payable",
            "type": "function"
        },
        {
            "inputs": [],
            "name": "getMemos",
            "outputs": [
                {
                    "components": [
                        {
                            "internalType": "address",
                            "name": "from",
                            "type": "address"
                        },
                        {
                            "internalType": "string",
                            "name": "name",
                            "type": "string"
                        },
                        {
                            "internalType": "string",
                            "name": "message",
                            "type": "string"
                        },
                        {
                            "internalType": "uint256",
                            "name": "timestamp",
                            "type": "uint256"
                        }
                    ],
                    "internalType": "struct BuyMeACoffe.Memo[]",
                    "name": "",
                    "type": "tuple[]"
                }
            ],
            "stateMutability": "view",
            "type": "function"
        }
    ],
    "bytecode": "0x608060405234801561001057600080fd5b5033600160006101000a81548173ffffffffffffffffffffffffffffffffffffffff021916908373ffffffffffffffffffffffffffffffffffffffff160217905550610b73806100616000396000f3fe6080604052600436106100295760003560e01c8063204206e11461002e578063865c51721461004a575b600080fd5b61004860048036038101906100439190610543565b610075565b005b34801561005657600080fd5b5061005f610206565b60405161006c91906107c0565b60405180910390f35b600034116100b8576040517f08c379a00000000000000000000000000000000000000000000000000000000081526004016100af9061083f565b60405180910390fd5b600060405180608001604052803373ffffffffffffffffffffffffffffffffffffffff16815260200184815260200183815260200142815250908060018154018082558091505060019003906000526020600020906004020160009091909190915060008201518160000160006101000a81548173ffffffffffffffffffffffffffffffffffffffff021916908373ffffffffffffffffffffffffffffffffffffffff16021790555060208201518160010190816101769190610a6b565b50604082015181600201908161018c9190610a6b565b50606082015181600301555050600160009054906101000a900473ffffffffffffffffffffffffffffffffffffffff1673ffffffffffffffffffffffffffffffffffffffff166108fc349081150290604051600060405180830381858888f19350505050158015610201573d6000803e3d6000fd5b505050565b60606000805480602002602001604051908101604052809291908181526020016000905b828210156103e057838290600052602060002090600402016040518060800160405290816000820160009054906101000a900473ffffffffffffffffffffffffffffffffffffffff1673ffffffffffffffffffffffffffffffffffffffff1673ffffffffffffffffffffffffffffffffffffffff1681526020016001820180546102b39061088e565b80601f01602080910402602001604051908101604052809291908181526020018280546102df9061088e565b801561032c5780601f106103015761010080835404028352916020019161032c565b820191906000526020600020905b81548152906001019060200180831161030f57829003601f168201915b505050505081526020016002820180546103459061088e565b80601f01602080910402602001604051908101604052809291908181526020018280546103719061088e565b80156103be5780601f10610393576101008083540402835291602001916103be565b820191906000526020600020905b8154815290600101906020018083116103a157829003601f168201915b505050505081526020016003820154815250508152602001906001019061022a565b50505050905090565b6000604051905090565b600080fd5b600080fd5b600080fd5b600080fd5b6000601f19601f8301169050919050565b7f4e487b7100000000000000000000000000000000000000000000000000000000600052604160045260246000fd5b61045082610407565b810181811067ffffffffffffffff8211171561046f5761046e610418565b5b80604052505050565b60006104826103e9565b905061048e8282610447565b919050565b600067ffffffffffffffff8211156104ae576104ad610418565b5b6104b782610407565b9050602081019050919050565b82818337600083830152505050565b60006104e66104e184610493565b610478565b90508281526020810184848401111561050257610501610402565b5b61050d8482856104c4565b509392505050565b600082601f83011261052a576105296103fd565b5b813561053a8482602086016104d3565b91505092915050565b6000806040838503121561055a576105596103f3565b5b600083013567ffffffffffffffff811115610578576105776103f8565b5b61058485828601610515565b925050602083013567ffffffffffffffff8111156105a5576105a46103f8565b5b6105b185828601610515565b9150509250929050565b600081519050919050565b600082825260208201905092915050565b6000819050602082019050919050565b600073ffffffffffffffffffffffffffffffffffffffff82169050919050565b6000610612826105e7565b9050919050565b61062281610607565b82525050565b600081519050919050565b600082825260208201905092915050565b60005b83811015610662578082015181840152602081019050610647565b60008484015250505050565b600061067982610628565b6106838185610633565b9350610693818560208601610644565b61069c81610407565b840191505092915050565b6000819050919050565b6106ba816106a7565b82525050565b60006080830160008301516106d86000860182610619565b50602083015184820360208601526106f0828261066e565b9150506040830151848203604086015261070a828261066e565b915050606083015161071f60608601826106b1565b508091505092915050565b600061073683836106c0565b905092915050565b6000602082019050919050565b6000610756826105bb565b61076081856105c6565b935083602082028501610772856105d7565b8060005b858110156107ae578484038952815161078f858261072a565b945061079a8361073e565b925060208a01995050600181019050610776565b50829750879550505050505092915050565b600060208201905081810360008301526107da818461074b565b905092915050565b600082825260208201905092915050565b7f506c656173652070617920736f6d652065746865720000000000000000000000600082015250565b60006108296015836107e2565b9150610834826107f3565b602082019050919050565b600060208201905081810360008301526108588161081c565b9050919050565b7f4e487b7100000000000000000000000000000000000000000000000000000000600052602260045260246000fd5b600060028204905060018216806108a657607f821691505b6020821081036108b9576108b861085f565b5b50919050565b60008190508160005260206000209050919050565b60006020601f8301049050919050565b600082821b905092915050565b6000600883026109217fffffffffffffffffffffffffffffffffffffffffffffffffffffffffffffffff826108e4565b61092b86836108e4565b95508019841693508086168417925050509392505050565b6000819050919050565b600061096861096361095e846106a7565b610943565b6106a7565b9050919050565b6000819050919050565b6109828361094d565b61099661098e8261096f565b8484546108f1565b825550505050565b600090565b6109ab61099e565b6109b6818484610979565b505050565b5b818110156109da576109cf6000826109a3565b6001810190506109bc565b5050565b601f821115610a1f576109f0816108bf565b6109f9846108d4565b81016020851015610a08578190505b610a1c610a14856108d4565b8301826109bb565b50505b505050565b600082821c905092915050565b6000610a4260001984600802610a24565b1980831691505092915050565b6000610a5b8383610a31565b9150826002028217905092915050565b610a7482610628565b67ffffffffffffffff811115610a8d57610a8c610418565b5b610a97825461088e565b610aa28282856109de565b600060209050601f831160018114610ad55760008415610ac3578287015190505b610acd8582610a4f565b865550610b35565b601f198416610ae3866108bf565b60005b82811015610b0b57848901518255600182019150602085019450602081019050610ae6565b86831015610b285784890151610b24601f891682610a31565b8355505b6001600288020188555050505b50505050505056fea26469706673582212209938e3921d17c52448baaba2a01513de78c814f35d4834cad480a22e1fbfc86a64736f6c63430008110033",
    "linkReferences": {},
    "deployedLinkReferences": {}
}